:100000000C946A000C9492000C9492000C94920050
:100010000C9492000C9492000C9492000C942E106C
:100020000C9492000C9492000C9492000C94571033
:100030000C9492000C9492000C9492000C949200F8
:100040000C945E260C9492000C9492000C949200F6
:100050000C9492000C9492000C9492000C949200D8
:100060000C9492000C9492000000000024002700E1
:100070002A0000000000250028002B0000000000DE
:1000800023002600290004040404040404040202DA
:100090000202020203030303030301020408102007
:1000A0004080010204081020010204081020000012
:1000B0000007000201000003040600000000000029
:1000C00000008B027B075D116811731182118D1185
:1000D0009811442811241FBECFEFD8E0DEBFCDBF5A
:1000E00012E0A0E0B1E0E0E9F4E502C005900D9275
:1000F000A438B107D9F715E0A4E8B2E001C01D9219
:10010000AE3BB107E1F710E0C4EDD0E004C02297A8
:10011000FE010E94422AC23CD107C9F70E94B206E2
:100120000C94462A0C9400000F931F93CF93DF93F7
:10013000689F8001699F100D789F100D1124C801E0
:100140000E94B000EC01009729F060E070E0A80187
:100150000E94C801CE01DF91CF911F910F910895A8
:10016000CF93DF93BC018230910510F462E070E020
:10017000A091BC05B091BD05ED01E0E0F0E040E0EC
:1001800050E021C0888199818617970769F48A8198
:100190009B81309719F09383828304C09093BD05AF
:1001A0008093BC05FE0134C06817790738F4411507
:1001B000510519F08417950708F4AC01FE018A81F6
:1001C0009B819C01E9012097E9F641155105A9F1B0
:1001D000CA01861B970B049708F4BA01E0E0F0E02F
:1001E0002AC08D919C91119784179507F9F4641793
:1001F000750781F412968D919C911397309719F0A1
:100200009383828304C09093BD058093BC05FD0158
:1002100032964CC0CA01861B970BFD01E80FF91FEF
:100220006193719302978D939C9340C0FD018281ED
:1002300093819C01D9011097A1F68091BA05909104
:10024000BB05892B41F4809108029091090290939B
:10025000BB058093BA0540910A0250910B024115EB
:10026000510541F44DB75EB78091060290910702A7
:10027000481B590B2091BA053091BB05CA01821B5E
:10028000930B8617970780F0AB014E5F5F4F841783
:10029000950750F0420F531F5093BB054093BA058A
:1002A000F9016193719302C0E0E0F0E0CF01DF91CA
:1002B000CF910895CF93DF93009709F450C0EC01DC
:1002C00022971B821A82A091BC05B091BD051097A0
:1002D00009F140E050E0AC17BD0708F1BB83AA83E9
:1002E000FE0121913191E20FF31FAE17BF0779F4A0
:1002F0008D919C911197280F391F2E5F3F4F3983A5
:10030000288312968D919C9113979B838A83411524
:10031000510571F4D093BD05C093BC0520C0129661
:100320008D919C911397AD01009711F0DC01D3CF13
:10033000FA01D383C28321913191E20FF31FCE17CB
:10034000DF0769F488819981280F391F2E5F3F4F9D
:10035000FA01318320838A819B8193838283DF9199
:10036000CF910895FB01DC0104C08D9101908019AB
:1003700021F441505040C8F7881B990B0895FB01A8
:10038000DC0102C001900D9241505040D8F7089511
:10039000DC0101C06D9341505040E0F70895FB012E
:1003A000DC018D9181341CF08B350CF4805E619101
:1003B00061341CF06B350CF4605E861B611189F3AF
:1003C000990B0895FB01DC0101900D920020E1F7EB
:1003D0000895FC0181E090E00190061609F4CF0138
:1003E0000020D1F701970895BC0184E892E04AE02B
:1003F00050E00E9444290895BC0184E892E04AE05C
:1004000050E00E94A7290895682F84E892E00E9496
:10041000C9280895BC0184E892E00E94BA29089591
:10042000282F462F84E892E0622F0E9495120895AB
:100430000F931F93CF93DF93142F0E941002C0E0FD
:10044000D0E0012F112707FD109504C080E20E9423
:1004500004022196C017D107CCF3DF91CF911F91F1
:100460000F910895EF92FF920F931F93F82EE62EAF
:1004700089010E9418028F2D6E2D0E941002C80162
:100480000E94F4011F910F91FF90EF9008950F9338
:100490001F938A010E941002C8010E94F4011F915B
:1004A0000F9108951F93142F0E941002812F0E9414
:1004B00004021F91089584E892E00E94C4120895F6
:1004C0000F931F938C010E945B0280E060E00E940A
:1004D0001002C8010E940A021F910F9108950F9304
:1004E0001F9304E812E0C80160E142E020E00E94AE
:1004F000CC12C8010E94C412C80161E04CE052E075
:100500000E946312C80162E044E152E00E9463125B
:100510001F910F910895CF92EF920F9384E892E08C
:1005200064E045E026E007E058E0E52E39E0C32E20
:100530000E9482130F91EF90CF9008952F923F92D7
:100540004F925F926F927F928F929F92AF92BF92E3
:10055000CF92DF92EF92FF920F931F93CF93DF938F
:1005600080E091E00E94600240911F0250912002C1
:1005700080E061E00E9447028CE091E00E940A0264
:100580000091990210919A028FE7F801818360919E
:100590001F027091200280E090E00E941311A0E001
:1005A000B0E0F80186839783A087B18780911F020E
:1005B000909120020E94970F80916F00826080933B
:1005C0006F000E94A6263B014C010E94A6265B01FB
:1005D0006C0100E010E0EE24E394E4EF4E2EE1E045
:1005E0005E2E78EE272E73E0372E0E94A62666191F
:1005F000770988099909673971058105910518F40A
:1006000065E0F62E07C00E94A6263B014C010E9421
:100610004611F82E0E94A6269B01AC01EE2029F07F
:10062000809123029091240204C080912102909134
:1006300022022A193B094C095D09A0E0B0E08217AB
:100640009307A407B507A0F4EE2021F080916F0076
:100650008D7F03C080916F00826080936F0080E087
:10066000EE2009F481E0E82E0E94A6265B016C01D1
:10067000F4E0FF1609F043C00F5F1F4F043011056F
:1006800099F00130110519F10230110524F401151A
:10069000110551F0AACF0230110509F4C0C0033092
:1006A000110509F0A2CFD2C080E091E00E94600263
:1006B00040911F025091200280E061E00E944702B9
:1006C0008CE091E00E940A0200E010E08ECF80E111
:1006D00091E00E94600280E061E00E941002C0E0B0
:1006E000D0E004C081E00E94040221968091A30220
:1006F000992787FD9095C817D907A4F376CF21E0F5
:10070000F21609F041C00130110509F1023011055E
:1007100024F40115110549F068CF02301105E1F00C
:100720000330110509F061CF29C080911F0290911B
:100730002002C2969093200280931F02895E93400C
:1007400008F444C03092200220921F023FC084E887
:1007500092E00E94381149CF8091230290912402A7
:1007600001969093240280932302855F914008F4C0
:1007700054C050922402409223024FC08091210223
:10078000909122020A965CC022E0F21609F02DCF69
:100790000130110591F10230110524F40115110504
:1007A00049F023CF0230110569F10330110509F03A
:1007B0001CCF3EC080911F02909120028233910590
:1007C00028F0C2979093200280931F0280911F020D
:1007D000909120020E94970F0E945B0280E091E0BE
:1007E0000E94600240911F025091200280E061E06F
:1007F0000E9447028CE091E037C084E892E00E94BA
:100800002911F3CE8091230290912402009729F0C0
:10081000019790932402809323020E945B028BE154
:1008200091E00E946002409123025091240216C080
:1008300080912102909122028A30910528F00A9736
:1008400090932202809321020E945B0287E291E052
:100850000E946002409121025091220280E061E0FA
:100860000E94470283E291E00E940A02BECE6F928C
:100870007F928F929F92BF92CF92DF92EF92FF92E0
:100880000F931F93CF93DF9380E391E00E94600268
:1008900080911D0290911E020E94FC0188E391E06C
:1008A0000E940A028FE060E04DE50E94520280E063
:1008B00061E00E94100200E010E005C081E00E94AB
:1008C00004020F5F1F4F8091A302992787FD909527
:1008D000081719079CF30091990210919A028FE76B
:1008E000D80111968C9360911D0270911E02882789
:1008F00077FD8095982F0E941311A0E0B0E0F801D9
:1009000086839783A087B18780911D0290911E02F4
:100910000E94970F80916F00826080936F00BB24CC
:10092000B394EE24FF248701C1E0D0E091E0892E4A
:10093000912C88EE682E83E0782E0E944611F1EA11
:10094000EF16F6E8FF06F1E00F07F0E01F0708F4E6
:100950000FC1813009F41FC1823009F4B4C0843062
:1009600039F0EE24FF248701B1E0CB2ED12C1AC13F
:10097000BB2041F580E391E00E94600280911D025E
:1009800090911E020E94FC0188E391E00E940A02FD
:100990008FE060E04DE50E94520280E061E00E943D
:1009A000100200E010E005C081E00E9404020F5F29
:1009B0001F4F8091A302992787FD9095081719076B
:1009C0009CF3E3C08BE391E00E94600280911D02E2
:1009D00090911E020E94FC0188E391E00E940A02AD
:1009E00080E061E00E94100200E010E007C084E8AF
:1009F00092E061E00E94C9280F5F1F4F8091A3021F
:100A0000992787FD9095081719078CF380E061E01E
:100A10004BE50E9452028FE061E04DE50E945202D8
:100A2000BB24B5C080E061E00E94100284E892E03F
:100A30000E94381180E061E04BE50E9452028FE095
:100A400061E04DE50E945202AAC080911D02909182
:100A50001E028C0D9D1D90931E0280931D02895EC7
:100A6000934024F070921E0260921D0285E090E097
:100A7000C80ED91E20911D0230911E0287E060E051
:100A800047E00E94320288E391E00E940A0200914E
:100A9000990210919A0260911D0270911E0288279E
:100AA00077FD8095982F0E941311A0E0B0E0F80127
:100AB00086839783A087B18780911D0290911E0243
:100AC0000E94970F6CC0BB2099F480E061E00E9407
:100AD000100284E892E00E94291180E061E04BE579
:100AE0000E9452028FE061E04DE50E9452023AC03E
:100AF00080911D0290911E028C1B9D0B90931E02F3
:100B000080931D021816190624F090921E028092FE
:100B10001D02259620911D0230911E0287E060E0A3
:100B200047E00E94320288E391E00E940A020091AD
:100B3000990210919A0260911D0270911E028827FD
:100B400077FD8095982F0E941311A0E0B0E0F80186
:100B500086839783A087B18780911D0290911E02A2
:100B60000E94970FEE24FF248701A1E0CA2ED12C0A
:100B700088EE93E00E940D2788EE93E0A0E0B0E0BD
:100B8000E80EF91E0A1F1B1FD8CEBB24B394F1E058
:100B9000CF2ED12C04C0BB2009F057CF43CFEE2479
:100BA000FF248701C1E0D0E0E3CF80911C028823BD
:100BB00009F03DC082E491E00E94600280E061E0C3
:100BC0000E941002E091A102F091A202878988237D
:100BD00049F1808D918D0E94F401E091A102F09184
:100BE000A202808D918D019719F48AE491E002C0F0
:100BF00082E591E00E940A02E091A102F091A20236
:100C0000828D938D0E94F401E091A102F091A202E5
:100C1000828D938D019719F48BE591E005C080E6F4
:100C200091E002C0CF0106960E940A020895813029
:100C300019F486E691E007C0833019F480E791E06B
:100C400002C08BE791E00E9460020895CF93DF938A
:100C50000E944611823049F480911C02833019F4BD
:100C600010921C020DC08F5F09C0813081F4809109
:100C70001C02882311F482E001C0815080931C0281
:100C80000E94D50564EB70E080E090E057C08430AE
:100C900009F056C080911C02823049F466E970E088
:100CA00080E090E00E94B4260E94370443C0813067
:100CB00021F566E970E080E090E00E94B42686E8C5
:100CC00091E00E94600280E061E00E941002C0E0BA
:100CD000D0E004C081E00E94040221968091A3022A
:100CE000992787FD9095C817D907A4F30E94BE0DD8
:100CF00086E691E00E9460021DC0833049F466E9F7
:100D000070E080E090E00E94B4260E949E0212C033
:100D100066E970E080E090E00E94B426E091A102D4
:100D2000F091A2028789882319F00E94BF0B02C0AC
:100D30000E94D60C6CE271E080E090E00E94B42644
:100D4000DF91CF9108950E946F020E94960E0E943B
:100D5000A50E0E94B9060E94850D0E946C0E0E948D
:100D6000D50508950E9417270E94A3060E94260613
:100D7000FDCF8AE090E00E94B000809399029093AA
:100D80009A028AE090E00E94B000FC0190939C02DD
:100D900080939B02A0919902B0919A021C921082BA
:100DA0000895E0919902F0919A028081882319F0C8
:100DB0000E94B30E05C080916F008D7F80936F00FD
:100DC000E0919B02F0919C028081882361F08281F6
:100DD0009381A481B58180589E43A040B04018F40F
:100DE0000E940C0F0895809170008D7F8093700099
:100DF0000895E0919902F0919A021082E0919B028D
:100E0000F0919C0210820E94D1060895982F885775
:100E1000823020F09B3711F09C3711F40E94F906C4
:100E20000895982FE0919902F0919A028081891794
:100E300021F410820E94D1060895E0919B02F09166
:100E40009C028081891719F410820E94D1060895AE
:100E5000382F462F662319F40E9411070895A09198
:100E60009902B0919A022C91281719F4CD01622FA2
:100E70001BC0E0919B02F0919C026081681711F405
:100E8000CF0112C0222311F4CD010DC0662311F44D
:100E9000CF0109C08AE001900D928150E1F7809165
:100EA0009B0290919C02632F0E94CF100E94D1065A
:100EB0000895FC019081892F8F708230D8F49C3F77
:100EC00019F40E94F9060895892F82958F70893050
:100ED00029F4818162810E9428070895883021F4D5
:100EE00081810E94110708958B3021F481816281F4
:100EF0000E94060708951092A9021092CB04109246
:100F0000CC0489E18093EE041092F10489E292E02E
:100F10009093A5028093A4021092F7041092F80413
:100F20001092F6041092F50481E392E09093F40499
:100F30008093F3040895895B9D4F0E94991408954E
:100F4000895B9D4F0E943915089504960E94941B59
:100F50000895DF93CF930F92CDB7DEB769830496E0
:100F6000BE016F5F7F4F41E050E00E94941B0F90E5
:100F7000CF91DF910895EF92FF920F931F93CF933C
:100F8000DF937C018A01C091A102D091A2028881E5
:100F9000998168177907B8F06C8D7D8D87EF94E0A3
:100FA00040E051E00E944F1799838883E091A102AD
:100FB000F091A20280819181892B19F460E070E0A8
:100FC00030C060E070E06F5F7F4FD701A60FB71FA2
:100FD000615070402C912F77F701E60FF71F808149
:100FE00090E09695982F882797958795820F911D69
:100FF000F801918380838C9187FD02C081E801C054
:1010000081E9D80112968C931297F701E60FF71F2A
:10101000828113968C931397838114968C936C5FC3
:101020007F4FCB01DF91CF911F910F91FF90EF90F8
:1010300008952F923F924F925F926F927F928F927C
:101040009F92AF92BF92CF92DF92EF92FF920F9357
:101050001F93DF93CF93CDB7DEB728970FB6F894E1
:10106000DEBF0FBECDBF83E991E00E94600200E0C9
:1010700010E007C0802F61E041E00E9452020F5F44
:101080001F4F8091A302992787FD90950817190794
:101090008CF30E94A6266D837E838F8398870E949F
:1010A000A62669837A838B839C83662477244301F5
:1010B00022243324210104C0AD82BE82CF82D8868F
:1010C0000E94A6265B016C010E944611282FD601C2
:1010D000C50186199709A809B90985369105A105A1
:1010E000B10520F1243099F40E94F90687EF94E0CD
:1010F00040E050E060E070E00E948016E091A102C4
:10110000F091A2021182108211A210A2E8C0213037
:1011100029F484E892E00E94381106C0223031F4AC
:1011200084E892E00E94291135014601D601C501EB
:1011300082199309A409B509895E9340A040B04083
:1011400008F45DC0C601B50129813A814B815C81FB
:10115000621B730B840B950B28EE33E040E050E0EC
:101160000E94032A79018A01E091A102F091A20272
:1011700062A173A184A195A128EE33E040E050E084
:101180000E94032A2901C7016CE370E00E94DC2958
:101190009B0182E060E04DE00E9432028AE30E94FF
:1011A0000402C7016CE370E00E94DC298C018A30E4
:1011B000910518F480E30E940402C8010E94F40122
:1011C0008FE20E940402C2016CE370E00E94DC29FD
:1011D000CB010E94F4018AE30E940402C2016CE385
:1011E00070E00E94DC298C018A30910518F480E3BC
:1011F0000E940402C8010E94F40115012601A60103
:1012000095018D819E81AF81B885281B390B4A0BD2
:101210005B0B0091A1021091A202D80112966D9170
:101220007C911397FB0180819181A0E0B0E082174F
:101230009307A407B50708F043CFF80186A197A14B
:10124000A0A5B1A5820F931FA41FB51F86A397A3C6
:10125000A0A7B1A70480F581E02DDB0112968C9147
:101260008083F801A481B58182819381FC0183810F
:1012700011968C93F801A481B58182819381FC0140
:10128000848112968C93D80114968D919C91159718
:101290000E9459070091A1021091A202F80160A1D9
:1012A00071A142815381848D958D0E94BB07D80125
:1012B00091969C938E939097E091A102F091A20257
:1012C00080819181892B09F0F7CE0E94F90687EF82
:1012D00094E040E050E060E070E00E9480162896C4
:1012E0000FB6F894DEBF0FBECDBFCF91DF911F9137
:1012F0000F91FF90EF90DF90CF90BF90AF909F90B5
:101300008F907F906F905F904F903F902F900895B7
:10131000BF92CF92DF92EF92FF920F931F93DF93D2
:10132000CF93CDB7DEB7A0970FB6F894DEBF0FBE50
:10133000CDBF7C01FB01B42E19821A8280818F32CD
:10134000B1F48181882399F48701095D1D4FC8019B
:101350000E945919C801B7010E946319882379F1C5
:10136000BB2079F1F8018081807749F123C08701A2
:10137000095D1D4F6E010894C11CD11CC601B80146
:10138000AF0121E00E94F31A8823C9F08981807798
:10139000B1F0D801F60180E201900D928150E1F7A1
:1013A000BB2079F087E292E0E80EF91EF701808118
:1013B000807739F01093A8050093A70502C080E05C
:1013C00001C081E0A0960FB6F894DEBF0FBECDBF7E
:1013D000CF91DF911F910F91FF90EF90DF90CF9011
:1013E000BF9008950F931F93A091A102B091A20204
:1013F0005C96EC915C975D96FC9180E091E0DF015A
:101400009C011D9221503040E1F70091A102109102
:10141000A202D8015C966D917C915D9787EF94E074
:1014200040E051E00E944F17F801918380830091C2
:10143000A1021091A202D8015C96ED91FC915D97FA
:101440008381208130E040E050E0522F4427332751
:101450002227280F311D411D511D818190E0A0E000
:10146000B0E0DC0199278827280F391F4A1F5B1F2E
:10147000828190E0A0E0B0E0BA2FA92F982F8827B2
:10148000280F391F4A1F5B1FD80192962D933D9359
:101490004D935C93959784E090E091969C938E9306
:1014A000909796961D921D921D921C929997129656
:1014B0004D915C911397CF0164E070E00E94BB07EF
:1014C000F80191A380A31F910F910895EF92FF92CD
:1014D0000F931F93CF93DF93E7E1F5E00190002096
:1014E000E9F73197E751F5409F012051304037FF30
:1014F00003C020E030E00EC0BF016A5070400E947F
:10150000F029039797FF03C080E090E004C08217A2
:1015100093070CF0C901895E9A4F0E94600280E037
:1015200061E00E9410028091F704807759F5E09104
:10153000A102F091A20262A173A184A195A128EE5B
:1015400033E040E050E00E94032A79018A01C9019A
:101550006CE370E00E94DC29CB010E94F4018AE375
:101560000E940402C7016CE370E00E94DC29EC01D8
:101570008A30910518F480E30E940402CE010E9493
:10158000F40104C086E991E00E940A02DF91CF9144
:101590001F910F91FF90EF900895CF93DF9380916B
:1015A000F704282F30E0C90186709070892B31F53F
:1015B00029C020E030E0F901E95EFA4F80818823FC
:1015C00029F02F5F3F4F24363105A9F7F901E95E75
:1015D000FA4F8FE28083118282E011C087E195E0AB
:1015E0006EE270E00E94E901EC016DE971E00E9499
:1015F000CF01892B19F4188281E001C080E0DF91CE
:10160000CF91089520773070232B99F6E7CFFF9282
:101610000F931F93CF93DF93F82E0091FB0410914B
:10162000FC048091F704882321F087EF94E00E9466
:1016300059198BEC94E040E050E060E070E00E94CB
:10164000801687E195E062EA71E00E94E201CFEF47
:10165000DFEF3EC08091FB049091FC04801791075E
:1016600019F5D7FD3FC087EF94E00E94591987EF25
:1016700094E06BEC74E0AE0121E00E947A1A87EFEF
:1016800094E067E175E044E650E00E94BE210E94CC
:10169000CD0A8823E1F1FF20D1F18091F704807712
:1016A000B1F50E94F20933C087EF94E067E175E07D
:1016B00044E650E00E94BE210E94CD0A882321F01A
:1016C000C091FB04D091FC0487EF94E00E9459196B
:1016D00087EF94E06BEC74E041E00E94161A8823D7
:1016E00009F0B8CF87EF94E06BEC74E0A80121E03B
:1016F0000E947A1A87EF94E067E175E044E650E0D3
:101700000E94BE210E94CD0A80E090E002C081E0EC
:1017100090E0DF91CF911F910F91FF9008950F936B
:101720001F93082F8091F7048823D9F016C087EF04
:1017300094E067E175E044E650E00E94BE210E941B
:10174000CD0A182F882349F00023A9F08091F704CF
:10175000807789F40E94F2090EC087EF94E00E941E
:10176000591987EF94E06BEC74E041E00E94161A7F
:101770008823E9F610E0812F1F910F9108954F9271
:101780005F926F927F928F929F92BF92CF92DF92E1
:10179000EF92FF920F931F93CF93DF930E94A626A1
:1017A0006B017C0181E00E948F0B80E090E00E9441
:1017B000660AB6E94B2E512CC0E0D0E00E94A62666
:1017C0003B014C010E944611B82ED401C3018C1973
:1017D0009D09AE09BF0989559240A040B04048F02C
:1017E0008E010F5F1F4FCE010E94660A74016301D4
:1017F000E80184E0B81609F067C066E970E080E0AF
:1018000090E00E94B4268091F704807709F453C0D9
:101810008091CB04807609F441C084EA92E067E1CC
:1018200075E040E00E94880981E00E948F0B809162
:10183000F704882349F080E090E00E94660A740172
:101840006301C0E0D0E039C08BEC94E067E175E063
:1018500044E650E00E94BE210091CF041091D004D4
:1018600084EA92E063EA71E040E00E94880987EF31
:1018700094E00E94591987EF94E06BEC74E0A801A2
:1018800021E00E947A1A87EF94E067E175E044E670
:1018900050E00E94BE210E94CD0A0FC00E945B0250
:1018A00085EA91E00E94600264EF71E080E090E0E0
:1018B0000E94B42602C00E9419086CE271E080E028
:1018C00090E00E94B4267ACF22E0B216E1F466E9F5
:1018D00070E080E090E00E94B42681E00E948F0BCF
:1018E000882309F05CC087EF94E00E9459198BECC3
:1018F00094E040E050E060E070E00E94801681E0FB
:101900000E948F0B4CC081E0B81609F057CF0E949F
:10191000A6266B017C0181E00E94070B882369F5F4
:101920008091CB04807649F58BEC94E067E175E01B
:1019300044E650E00E94BE210091CF041091D004F3
:1019400084EA92E063EA71E040E00E94880987EF50
:1019500094E00E94591987EF94E06BEC74E0A801C1
:1019600021E00E947A1A87EF94E067E175E044E68F
:1019700050E00E94BE210E94CD0A0E94A6266C194A
:101980007D099201261B370B37FF02C020E030E0B3
:10199000B901882777FD8095982F0E94B42680E0B2
:1019A00090E00E94660A7401630106CFCF93DF9333
:1019B00083EB91E00E9460028BEE94E062EF74E0B2
:1019C0004AE022E00E946D15882309F495C08BEC53
:1019D00094E00E94591984EA92E061E00E943A255D
:1019E000882341F484EA92E060E00E943A2588234B
:1019F00009F482C0CBECD4E0CE0164EA72E00E942C
:101A00006319882309F478C08091CB04807709F4A6
:101A100073C0D093A805C093A70528C08091A102E8
:101A20009091A202069664EC71E01DC08091A9021B
:101A3000882341F48091A1029091A202069662ED62
:101A400071E011C08091CB042091A1023091A202DB
:101A5000882329F0C901069660EE71E004C0C9012F
:101A6000069669EE71E00E94E2014CC081E00E949E
:101A70008F0B90E00097C9F08130910551F4E0910F
:101A8000A102F091A202808D918D0196918F808F9D
:101A9000EDCF029759F7E091A102F091A202828D59
:101AA000938D0196938F828FE1CF87EF94E00E9410
:101AB00059198BEC94E040E050E060E070E00E9447
:101AC000801687E195E062EA71E00E94E201E09110
:101AD000A102F091A202808D918D892B31F4CF016A
:101AE000069667EF71E00E94E201E091A102F09199
:101AF000A20281E0878B06C08091EE04882309F45E
:101B000095CF8CCFDF91CF9108950F931F938AE2E9
:101B100090E00E94B0008C019093A2028093A102F9
:101B200080E091E061E070E00E949400F801848F11
:101B3000958F0091A1021091A20285E090E00E9491
:101B4000B000F801828393830091A1021091A20258
:101B500083E090E00E94B000F80184839583E091D7
:101B6000A102F091A2021682178A118E108E138E96
:101B7000128E0E94D60C1F910F9108959F92AF92E2
:101B8000BF92CF92DF92EF92FF920F931F93CF936A
:101B9000DF93A0919902B0919A02E0919B02F0919B
:101BA0009C0210821C920E94A6265B016C0182E0BE
:101BB000982E0E94A6267B018C01DC01CB018A199C
:101BC0009B09AC09BD0987399105A105B10508F14B
:101BD0000E944611843071F40E94F906DF91CF9182
:101BE0001F910F91FF90EF90DF90CF90BF90AF903B
:101BF0009F900895813029F484E892E00E94381182
:101C000006C0823021F484E892E00E942911570135
:101C100068018091C00087FFCCCF9091C600892FCA
:101C2000881F8827881F282F30E021153105C1F033
:101C3000892F807F803861F0803951F0803B41F0FE
:101C4000803E31F0E0919F02F091A002108208C026
:101C5000E0919F02F091A00290839182928215827E
:101C6000E0919F02F091A0028081882309F4A1CF26
:101C7000232B89F485810380F481E02DE80FF11D89
:101C80009083E0919F02F091A00285818F5F858310
:101C9000818181508183C0919F02D091A00289816E
:101CA000882309F086CFA0919D02B0919E02888181
:101CB0008C93EB81FC81808111968C931197EB8141
:101CC000FC81818112968C9312978A8189831D826F
:101CD000CD010E9459076DCF0F931F931092C5003D
:101CE0008FE18093C40088E18093C10086E08093F7
:101CF000C20086E090E00E94B0008C019093A002A8
:101D000080939F02FC01108282E090E00E94B0006C
:101D1000F8018383948383E090E00E94B000809375
:101D20009D0290939E021F910F9108951092800042
:101D300088E08093810010926F0082E08093B00071
:101D40001092B100109270000895529A8EE060E0F7
:101D50000E94522781E160E00E94522780E160E00A
:101D60000E9452270895E0919902F0919A022281EF
:101D700033814481558174E0220F331F441F551F66
:101D80007A95D1F763E056954795379527956A95EB
:101D9000D1F7213080E0380781E0480780E058071C
:101DA00014F48AE021C093E055954795379527951F
:101DB0009A95D1F7213080E0380781E0480780E02C
:101DC000580714F48BE010C082E05595479537957D
:101DD00027958A95D1F7213080E0380781E04807C0
:101DE00080E058071CF48CE0809381002150304043
:101DF000404050403093890020938800868197812D
:101E0000A085B1850097A105B10529F080916F00EB
:101E1000826080936F000895E0919B02F0919C0294
:101E20002281338144815581A4E0220F331F441F56
:101E3000551FAA95D1F7213081E0380780E0480787
:101E400080E0580714F481E05CC073E05595479535
:101E5000379527957A95D1F7213081E0380780E0D2
:101E6000480780E0580714F482E04BC062E05595C3
:101E70004795379527956A95D1F7213081E0380746
:101E800080E0480780E0580714F483E03AC0559595
:101E9000479537952795213081E0380780E048073E
:101EA00080E0580714F484E02CC055954795379589
:101EB0002795213081E0380780E0480780E0580707
:101EC00014F485E01EC05595479537952795213028
:101ED00081E0380780E0480780E0580714F486E086
:101EE00010C0A2E05595479537952795AA95D1F74B
:101EF000213081E0380780E0480780E058071CF473
:101F000087E08093B1002150304040405040209302
:101F1000B30086819781A085B1850097A105B105A1
:101F200029F08091700082608093700008959C0178
:101F300040E050E060E472E48FE090E00E94032A09
:101F400064E0220F331F441F551F6A95D1F793E0B9
:101F500056954795379527959A95D1F7213080E08A
:101F6000380781E0480780E0580714F48AE021C070
:101F700083E055954795379527958A95D1F7213078
:101F800080E0380781E0480780E0580714F48BE0D0
:101F900010C0B2E05595479537952795BA95D1F77A
:101FA000213080E0380781E0480780E058071CF4C2
:101FB0008CE080938100215030404040504030936D
:101FC00089002093880008950F931F93CF93DF9388
:101FD0008C016091A302772767FD7095A4E0660FDE
:101FE000771FAA95E1F7882777FD8095982FF8014C
:101FF00026813781408551850E94BD29672F782F22
:10200000892F992787FD9A95882777FD8095982FA6
:10201000F801218130E040E050E00E94BD29672FA7
:10202000782F892F992787FD9A95EB016A307105E2
:1020300014F4CAE0D0E082E061E00E949127CE0172
:102040000E940D2782E060E00E949127CE010E944D
:102050000D27DF91CF911F910F9108951F920F923D
:102060000FB60F9211242F933F934F935F936F936B
:102070007F938F939F93AF93BF93EF93FF93809141
:102080009B0290919C020E94E40FB198FF91EF9106
:10209000BF91AF919F918F917F916F915F914F9180
:1020A0003F912F910F900FBE0F901F9018951F9288
:1020B0000F920FB60F9211242F933F934F935F937C
:1020C0006F937F938F939F93AF93BF93EF93FF9300
:1020D0008091990290919A020E94E40FB998FF9121
:1020E000EF91BF91AF919F918F917F916F915F9190
:1020F0004F913F912F910F900FBE0F901F90189509
:10210000CF93DF93C82FD0E0E997D7FD20C0CE0151
:102110006CE070E00E94F029FB01E15BFD4F208143
:1021200030E0CE016CE070E00E94F029FC01EE0F7F
:10213000FF1FEB5AFD4F80819181AC01249FC001AC
:10214000259F900D349F900D11249C0121C0CE013C
:10215000809590956CE070E00E94F029DB0111966B
:10216000FD01EE0FFF1FEA0FFB1FEE0FFF1FEE0F2B
:10217000FF1FEC0FFD1FEE0FFF1FEB5AFD4FA15B82
:10218000BD4F6C918081918170E00E94DC299B01A0
:1021900040E050E0B901CA01DF91CF910895DF928C
:1021A000EF92FF920F931F93CF93DF93EC01862F53
:1021B000D42E68830E9480107B018C0160E472E45D
:1021C0008FE090E0A80197010E94032A2A833B83B5
:1021D0004C835D83C801B70124E630E040E050E065
:1021E0000E94252AF9012A3131051CF020E030E057
:1021F00007C0EB5CFD4F908183E0989F9001112414
:10220000C901A0E0B0E08E839F83A887B987D694E8
:102210008FE7D80ED982DF91CF911F910F91FF9058
:10222000EF90DF90089524E630E040E050E00E9417
:10223000252AF9012A3131051CF020E030E007C0E1
:10224000EB5CFD4F908183E0989F90011124C901C0
:1022500008958091A302882351F0815061E040E20B
:102260000E9452028091A30281508093A30208959C
:102270008091A302803149F061E041E00E94520266
:102280008091A3028F5F8093A30208958EE00E9445
:10229000E527892B11F481E0089581E10E94E5276B
:1022A000892B11F482E0089580E10E94E527892BB3
:1022B00011F085E0089584E008950F938BE795E091
:1022C00060E040E020E000E00E9438280F9108958F
:1022D0000F9381E895E060E040E020E000E00E949C
:1022E00038280F9108950F938FE895E060E040E063
:1022F00020E000E00E94382887E895E00E949528B9
:102300000F9108950F9385E995E060E040E020E0AB
:1023100000E00E9438280F9108950F938BE995E013
:1023200060E040E020E000E00E9438280F9108952E
:102330000F9381EA95E060E040E020E000E00E9439
:1023400038280F9108950F931F938C01FC0186810B
:1023500060E00E94912781E090E00E940D27F80143
:10236000868161E00E94912781E090E00E940D2724
:10237000F801868160E00E94912784E690E00E9447
:102380000D271F910F910895CF92DF92EF92FF9248
:102390000F931F93CF93DF93D82EC92E282F392F59
:1023A000C9018C01C0E0D0E0E62EFF24F80187814E
:1023B00061E00E945227B7010C2E02C07595679507
:1023C0000A94E2F76170F80187810E9491272196B3
:1023D0000F5F1F4FC830D10549F78D2D9C2D0E94EE
:1023E000A311DF91CF911F910F91FF90EF90DF909C
:1023F000CF900895CF92DF92EF92FF920F931F93A9
:10240000CF93DF93D82EC92E282F392FC9018C01E5
:10241000C0E0D0E0E62EFF24F801878161E00E9451
:102420005227B7010C2E02C0759567950A94E2F702
:102430006170F80187810E94912721960F5F1F4FDD
:10244000C430D10549F78D2D9C2D0E94A311DF9139
:10245000CF911F910F91FF90EF90DF90CF90089553
:102460001F93CF93DF93EC01162F8C81642F0E9472
:1024700091278D818F3F19F060E00E9491278F8511
:1024800084FF05C0CE01612F0E94C4110EC0612FD0
:1024900070E084E0759567958A95E1F7CE010E941A
:1024A000FA11CE01612F0E94FA11DF91CF911F9195
:1024B000089541E00E94301281E090E0089540E0EC
:1024C0000E9430120895EF92FF920F931F93CF93C3
:1024D000DF938C017A016770660F660F660F606488
:1024E0000E945F12C0E0D0E0D801ED91FC91D701CD
:1024F000AC0FBD1F0190F081E02DC8016C910995D2
:102500002196C830D10581F7DF91CF911F910F91AE
:10251000FF90EF900895FC016089862F8460808B86
:102520006C60CF010E945F120895DF93CF93CDB707
:10253000DEB728970FB6F894DEBF0FBECDBF9C0163
:10254000FE013196A5E7B2E088E00D90019281503E
:10255000E1F7F9018389481710F0482F4150E42F23
:10256000F0E0EE0FFF1FEC0FFD1F8181680F606828
:10257000C9010E945F1228960FB6F894DEBF0FBE05
:10258000CDBFCF91DF91089561E00E945F1280ED91
:1025900097E00E940D270895CF93DF93EC0142301E
:1025A00018F08F8588608F874B8B1C8A222329F037
:1025B000413019F48F8584608F8780E593EC0E9409
:1025C0000D278C8160E00E9491278E8160E00E943F
:1025D00091278D818F3F19F060E00E9491276F85D0
:1025E00064FD1DC0CE0163E00E94FA1184E991E10F
:1025F0000E940D27CE0163E00E94FA1184E991E167
:102600000E940D27CE0163E00E94FA1186E990E056
:102610000E940D27CE0162E00E94FA1116C060628E
:10262000CE010E945F1284E991E10E940D276F851F
:102630006062CE010E945F1286E990E00E940D2741
:102640006F856062CE010E945F126F856062CE016D
:102650000E945F1284E0888BCE010E948B12CE0113
:102660000E94C41282E0898BCE0166E00E945F1254
:10267000DF91CF9108956F927F928F92AF92CF9218
:10268000EF920F931F93DF93CF93CDB7DEB73C014B
:10269000162F842FF301448325830683E782C086A7
:1026A000A18682869D8593879E8594879F85958741
:1026B0009889968761E00E945227F30185818F3FB8
:1026C00019F061E00E945227F301868161E00E94C7
:1026D0005227112319F0F301178603C080E1F3019B
:1026E0008787C30160E141E020E00E94CC12CF91D6
:1026F000DF911F910F91EF90CF90AF908F907F90CF
:102700006F9008958F92AF92CF92EF920F931F9395
:10271000CF93DF93DC01362F542F722F102FAE2C66
:102720008C2C13961C921E92129781E792E01196C0
:102730009C938E9300D000D0EDB7FEB73196CDB705
:10274000DEB71982118212821382CD0161E0432F1C
:102750002FEF052FE72EC12E0E943B130F900F90F5
:102760000F900F90DF91CF911F910F91EF90CF902D
:10277000AF908F900895FF920F931F93CF93DF93A5
:102780008B010E94A626EB01FF24FA9409C00E9447
:10279000A6266C1B7D0B6017710710F080E008C047
:1027A000FEBC0DB407FEFDCF8EB58F3F81F781E0F3
:1027B000DF91CF911F910F91FF900895FC0134811B
:1027C00092E020E007C0253010F082E001C081E0F7
:1027D000990F280F931710F42730A8F330E0C901A0
:1027E0009595879580658CBD209521702DBD828142
:1027F00060E00E9491270895FF920F931F93DF934B
:10280000CF9300D000D0CDB7DEB78C01F62E298350
:102810003A834B835C830E94DE13C80168E572E053
:102820000E94BB138F2D80648EBD0DB407FEFDCFBB
:10283000FE0131969E012350304083818EBD0DB440
:1028400007FEFDCF3197E217F307B9F7FF2011F02C
:1028500087E801C085E98EBD0DB407FEFDCF8CE091
:10286000F81631F48FEF8EBD0DB407FEFDCF8EB597
:1028700090E02FEF2EBD0DB407FEFDCF8EB587FF84
:1028800002C09150B9F7F80185830F900F900F9017
:102890000F90CF91DF911F910F91FF900895FC0150
:1028A000828161E00E9491278FEF8EBD0DB407FEFB
:1028B000FDCF0895CF93DF93EC01DA016EBD0DB427
:1028C00007FEFDCF8C918EBD1196EC91119782E0A1
:1028D00090E00DB407FEFDCFEEBD22E08030920700
:1028E00031F0FD01E80FF91FE0810196F2CF0DB440
:1028F00007FEFDCF8FEF8EBD0DB407FEFDCF8FEF2E
:102900008EBD0DB407FEFDCF8FEF8EBD0DB407FE5B
:10291000FDCF8EB58D838F71853011F481E006C0B7
:1029200083E18B83CE010E944F1480E0DF91CF9131
:102930000895CF92DF92EF92FF920F931F93CF9360
:10294000DF93EC017A018B0169018E81833039F0CC
:1029500059E0EE0CFF1C001F111F5A95D1F7CE0154
:1029600068E1A80197010E94FC13882319F086E012
:102970008B830CC0CE016EEFA6010E945A148823EF
:1029800029F0CE010E944F1481E004C0CE010E94C4
:102990004F1480E0DF91CF911F910F91FF90EF9046
:1029A000DF90CF900895BF92CF92DF92EF92FF9287
:1029B0000F931F93CF93DF93EC016B017A010E9479
:1029C000A6268B01BB24BA9409C00E94A626601BD0
:1029D000710B6D52714010F081E10BC0BEBC0DB4A3
:1029E00007FEFDCF8EB58D838F3F79F38E3F39F093
:1029F0008FE08B83CE010E944F1480E030C0D7015E
:102A00001197EF28D9F08FEF8EBD20E030E09FEFD7
:102A10000BC00DB407FEFDCF8EB59EBDF601E20FD3
:102A2000F31F80832F5F3F4F2A173B0790F30DB4AE
:102A300007FEFDCF8EB5AC0DBD1D8C931D828FEFB3
:102A40008EBD0DB407FEFDCF8EB58FEF8EBD0DB4DC
:102A500007FEFDCF8EB5CE010E944F1481E0DF91BD
:102A6000CF911F910F91FF90EF90DF90CF90BF908B
:102A70000895CF92DF92EF92FF920F931F93CF931F
:102A8000DF93EC017A018B0169018E81833039F08B
:102A9000B9E0EE0CFF1C001F111FBA95D1F7CE0153
:102AA00061E1A80197010E94FC13882339F084E0BA
:102AB0008B83CE010E944F1480E006C0CE01B60188
:102AC00040E052E00E94D314DF91CF911F910F910B
:102AD000FF90EF90DF90CF900895BF92CF92DF925A
:102AE000EF92FF920F931F93CF93DF93EC01B22EDF
:102AF0001E821B82798368834A830E94A6266B010B
:102B00008A8161E00E9452278A8161E00E949127B8
:102B10002A9A229A239A259A80E48C8320E080E0E6
:102B200090E0253010F032E001C031E0230F843016
:102B3000910519F001962730A0F330E0C901959571
:102B4000879580658CBD209521702DBD80E09FEF1D
:102B50009EBD0DB407FEFDCF8F5F8A30C9F709C057
:102B60000E94A6266C197D09615D774010F081E016
:102B700063C0CE0160E020E030E040E050E00E9421
:102B8000FC13813069F71FEFCE0168E02AEA31E0DB
:102B900040E050E00E94FC13853011F481E00DC04C
:102BA00080E01EBD0DB407FEFDCF9EB58F5F843063
:102BB000C1F79D839A3A31F482E08E838E81823010
:102BC00051F40DC00E94A6266C197D09615D774005
:102BD000D8F282E031C0EE24FF2487010FC0E12C3F
:102BE000F12C012D80E4182F09C00E94A6266C1933
:102BF0007D09615D774010F08AE01EC0CE0167E379
:102C000020E030E040E050E00E94FC13CE0169E299
:102C1000A80197010E94FC13882339F78E81823026
:102C200031F5CE016AE320E030E040E050E00E9460
:102C3000FC13882339F088E08B83CE010E944F1467
:102C400080E01AC08FEF8EBD0DB407FEFDCF8EB5AC
:102C5000807C803C11F483E08E8380E09FEF9EBDFA
:102C60000DB407FEFDCF2EB58F5F8330C1F7CE01C7
:102C70000E944F14BC8281E0DF91CF911F910F9190
:102C8000FF90EF90DF90CF90BF900895FF920F9349
:102C90001F93CF93DF938C01DB01EC0140E078E0E0
:102CA00060E08EE2F82E88818032E1F0683031F405
:102CB000FD01E40FF11DF0824F5F70E15881852F17
:102CC00081548A3150F4272F30E0F801848590E058
:102CD00028233923232B09F0505EFD01E40FF11D59
:102CE00050834F5F6F5F21966B30E9F6A40FB11DE3
:102CF0001C92842FDF91CF911F910F91FF90089527
:102D00002F923F924F925F926F927F928F929F92FB
:102D1000AF92BF92CF92DF92EF92FF920F931F93E9
:102D2000CF93DF93EC015A016B012C843D844E84D8
:102D30005F848881882309F49AC041155105610593
:102D4000710529F41C861D861E861F868AC0682F81
:102D500083FF0BC0888D998DAA8DBB8D8A159B052D
:102D6000AC05BD0508F483C014C085FF12C0EE8118
:102D7000FF818681978125E0880F991F2A95E1F7C9
:102D8000A0E0B0E08A159B05AC05BD0508F46FC056
:102D900068C0288939894A895B89EE81FF818481ED
:102DA00090E00996215030404040504039014A019E
:102DB000082E04C096948794779467940A94D2F767
:102DC0002F5F3F4F4F4F5F4F0894A108B108C108D4
:102DD000D1088601750104C016950795F794E7940C
:102DE0008A95D2F70894A11CB11CC11CD11CE61411
:102DF000F7040805190528F021153105410551058D
:102E000081F466FF05C0848D958DA68DB78D04C0B5
:102E10008C8D9D8DAE8DBF8D8C879D87AE87BF8736
:102E200016C0E618F7080809190911C04C855D8518
:102E30006E857F858E819F8194010E9481230894F5
:102E4000E108F10801091109181634F010C09CE0DE
:102E5000892E912C8C0E9D1EE114F10401051105A3
:102E600029F7A88AB98ACA8ADB8A81E005C02C863C
:102E70003D864E865F8680E0DF91CF911F910F9156
:102E8000FF90EF90DF90CF90BF90AF909F908F908A
:102E90007F906F905F904F903F902F9008952F926A
:102EA0003F924F925F926F927F928F929F92BF92CA
:102EB000CF92DF92EF92FF920F931F93CF93DF9306
:102EC0008C013A01DC019C91992309F4F6C0129619
:102ED0008C9180FFF2C00DC1F801208D318D428DA3
:102EE000538D80899189A289B389281B390B4A0B9C
:102EF0005B0BC301A0E0B0E082179307A407B507FE
:102F0000C8F017C085FF16C0D8011696ED91FC9148
:102F100017972681378195E0220F331F9A95E1F7A5
:102F200050968D919C915197281B390B261537058A
:102F300008F439014B018CE0482E512C400E511EF3
:102F40007301212CB2E03B2EB0C0F80120893189F9
:102F500042895389AFEFCA2EA1E0DA2EC222D322D2
:102F60008081682F0680F781E02DDA01C90179E0C0
:102F7000B695A795979587957A95D1F765FF09C07E
:102F8000448D558D668D778D480F591F6A1F7B1FA5
:102F900048C0B380B822C114D10481F5BB2071F5BB
:102FA0002115310541055105A1F466FF05C0448D89
:102FB000558D668D778D07C0D8015C964D915D91DA
:102FC0006D917C915F97F801448755876687778775
:102FD00015C0D8011C964D915D916D917C911F9704
:102FE000CF0192010E94812387FD67C0882331F4BD
:102FF000F8018081807709F460C05BC0D8011C961D
:103000004D915D916D917C911F9716968D919C913C
:1030100017970E946723AB01BC014B0D511D611D29
:10302000711DC114D10491F4B0E0EB16B2E0FB06BF
:1030300068F0F801C681D7818BA19CA1ADA1BEA18A
:10304000481759076A077B0709F057C0D801169639
:103050008D919C911797809620E00E9422230097E3
:1030600061F1A1014C195D09E7014E155F0508F4F6
:10307000EA019C012C0D3D1DC401B901AE010E9465
:10308000BF018C0E9D1E9E0140E050E0F80180893A
:103090009189A289B389820F931FA41FB51F808BCA
:1030A000918BA28BB38BEC1AFD0AE114F10409F0A9
:1030B0004CCFA3014E195F0909C0D80111968C911C
:1030C0001197826011968C934FEF5FEFCA01DF91E9
:1030D000CF911F910F91FF90EF90DF90CF90BF9015
:1030E0009F908F907F906F905F904F903F902F9028
:1030F0000895892F93FDF0CE05CFE881F9810190E5
:10310000F081E02DCE01940109958823B1F2C0E051
:10311000D2E0B7CFFF920F931F93DF93CF930F921D
:10312000CDB7DEB78C01FC012089318942895389F2
:10313000DA01C901E5E0B695A79597958795EA95D7
:10314000D1F77FE0F72EF82211F06623D1F4C80101
:10315000BE016F5F7F4F41E050E00E944F1781300A
:1031600019F020E030E023C0F80180899189A2891C
:10317000B3894F96A11DB11D808B918BA28BB38B10
:1031800009C0205E3F4F4F4F5F4FF801208B318BBE
:10319000428B538B8F2D90E025E0880F991F2A9545
:1031A000E1F78796F80126813781280F391FC90179
:1031B0000F90CF91DF911F910F91FF900895CF93C2
:1031C000DF93EC01262F8E819F814C895D896E896A
:1031D0007F8980960E942223009719F420E030E036
:1031E0000BC02C813D812F703070F5E0220F331F12
:1031F000FA95E1F7280F391FC901DF91CF910895A2
:103200000F931F93CF93DF938C01FC018081882360
:1032100009F449C0828187FF38C0C80161E00E947B
:10322000DF18EC010097C9F18881853EB1F1F80102
:10323000808183FF08C0808D918DA28DB38D8C8F8E
:103240009D8FAE8FBF8FF801848D958D9B8F8A8F58
:10325000848D958DA68DB78DCD01AA27BB279D8B1B
:103260008C8BE091A905F091AA05309751F0BE0131
:103270006A5E7F4FCE0148960995888D998D9B8B0C
:103280008A8BF80182818F778283F801868197810A
:1032900080960E94D922882331F4F80181818160CF
:1032A000818380E001C081E0DF91CF911F910F9178
:1032B00008950F931F938C010E940019F80110824A
:1032C0001F910F910895CF93DF93FC01DB01808163
:1032D000882399F480E2EF01982F19929A95E9F7E3
:1032E0007783668315966C91603119F0603229F40A
:1032F00080E4808381E0828301C080E0DF91CF9110
:1033000008950F931F93CF93DF93EC01FB0180E2AD
:10331000DE011D928A95E9F7668177817F836E834E
:103320005D834C83848D958DA68DB78D8887998715
:10333000AA87BB874F705070FA0195E0EE0FFF1F10
:103340009A95E1F7E60FF71F82A983FD62C0982FD7
:103350009771988382A9887111F4986098830B8380
:10336000022F10E0C80182739070892B21F08881B0
:10337000817109F04EC02F702A832E813F81F9019F
:1033800083A194A1A5A1B6A18C8B9D8BAE8BBF8B85
:10339000FA0185E0EE0FFF1F8A95E1F7E60FF71FB0
:1033A00083AD94ADA0E0B0E0BC0155274427EF5BAE
:1033B000FF4F80819181E154F040A0E0B0E0482BC4
:1033C000592B6A2B7B2B04FF0BC04115510561055E
:1033D000710541F1C9010E94E524882319F519C03E
:1033E0004C8F5D8F6E8F7F8FED5BFF4F8081918162
:1033F000A281B381888F998FAA8FBB8F05FF0CC0E4
:10340000488D598D6A8D7B8DCE010E948016882350
:1034100019F4188280E001C081E0DF91CF911F9103
:103420000F9108958A8180688A83E8CFBF92CF92F6
:10343000DF92EF92FF920F931F93CF93DF936C0174
:10344000EB01B42EFC018081882309F03EC0888105
:103450008077D9F188899989AA89BB898F71907001
:10346000A070B0700097A105B10579F510E000E0FB
:1034700088899989AA89BB8925E0B695A7959795EA
:1034800087952A95D1F77C01CE0160E00E948A18C9
:10349000FC010097D1F090819923B9F09E3239F365
:1034A000953E29F3838583FD08C00023C9F0CF0131
:1034B0000E94681D181749F413C08F30C1F696FF9B
:1034C000D7CF092F0F711585D3CF80E0DF91CF9132
:1034D0001F910F91FF90EF90DF90CF90BF900895D4
:1034E000C601BE01A7012B2D0E948119882371F30B
:1034F00081E0ECCFBF92CF92DF92EF92FF920F93D9
:103500001F93CF93DF936C018B01EA01B22EFC0174
:103510008081882309F04EC0FB018081807709F407
:1035200049C053C0209741F12197AE0160E070E09F
:10353000219635E0440F551F661F771F3A95D1F746
:10354000C8010E9480168823A9F1C80160E00E948A
:103550008A18FC01009771F183858F30A1F4808176
:103560008F71813081F4E584CE01C531D10510F031
:1035700084E190E0F82E09C0C80140E050E060E02E
:1035800070E00E948016EE24FF24C80160E00E94D3
:103590008A18FC01009771F08081853E59F08823DC
:1035A00049F08E3239F0FF2099F0CF010E94681D5A
:1035B000E81671F080E0DF91CF911F910F91FF909D
:1035C000EF90DF90CF90BF90089527FFABCFF2CF61
:1035D000C601B801AE012B2D0F2D0E948119882341
:1035E00051F381E0E8CF7F928F929F92AF92BF928A
:1035F000CF92DF92EF92FF920F931F93DF93CF93BF
:10360000CDB7DEB7E3970FB6F894DEBF0FBECDBFE0
:103610007C018B015BAB4AAB722E1A8A1B8AFC01C0
:103620008081882309F055C0FB018081807709F4EF
:1036300050C064C03196FBABEAABEAA9FBA980811C
:103640008F32C1F3F80166817781882321F4C701A5
:103650000E9463193FC08E010E5E1F4FC8010E9479
:1036600063198823B1F142E3842E912C8C0E9D1EA8
:103670006E010894C11CD11C32E1A32EB12CAC0EFA
:10368000BD1E8AA99BA9B601A4010E947E1D8823A4
:1036900001F1EAA9FBA980818823A1F0C701B80143
:1036A000A60121E00E94261F882399F0D501F70189
:1036B00080E201900D928150E1F7C7010E945919F3
:1036C0008501DFCFC701B801A601272D0E94261F63
:1036D00001C080E0E3960FB6F894DEBF0FBECDBF09
:1036E000CF91DF911F910F91FF90EF90DF90CF90DE
:1036F000BF90AF909F908F907F900895EAA9FBA90B
:1037000080818F3209F0AFCF98CFFC018281806831
:1037100082834485558566857785868197813C9629
:103720009F010E944A2408952F923F924F925F92E8
:103730006F927F929F92AF92BF92CF92DF92EF9261
:10374000FF920F931F93CF93DF93EC01162F072F58
:103750002A01888183FF26C18A8181FF23C13AC162
:10376000488D598D6A8D7B8DCE010E9480168823ED
:1037700009F418C1920140E050E088899989AA892A
:10378000BB8980959095A095B09582179307A40763
:10379000B50708F407C1812F902F9C0139017CE007
:1037A000272E312C2C0E3D1E5201D3C0EE81FF81FD
:1037B000DA01C90169E0B695A795979587956A954D
:1037C000D1F7938098225FEFC52E51E0D52EC2220B
:1037D000D3229920A9F5C114D10491F54C855D85BA
:1037E0006E857F85411551056105710571F0CF0129
:1037F00091010E94812387FDD5C0882309F5CE0160
:103800000E94851B8823E1F4CDC08C8D9D8DAE8DEB
:10381000BF8D0097A105B10579F4CE010E94851BEB
:10382000882309F4BFC08C859D85AE85BF858C8FAC
:103830009D8FAE8FBF8F04C08C879D87AE87BF875B
:103840004C855D856E857F858E819F810E94672373
:103850007B018C01E90CF11C011D111DC114D10467
:10386000A1F480E0A81682E0B806D0F5288939894D
:103870004A895B89888D998DAA8DBB8D2817390758
:103880004A075B0710F025E001C021E08E819F818F
:103890008096B801A7010E942223009709F482C0F4
:1038A00040E052E04C195D0985014A155B0508F4BA
:1038B0008A019C012C0D3D1DC901B301A8010E9484
:1038C000BF01C00ED11E90E0C91692E0D90671F575
:1038D0008E819F8180960E94D922882339F562C00B
:1038E000EE81FF8183A194A1A5A1B6A18E159F05AC
:1038F000A007B10749F410A28FEF9FEFAFEFBFEF22
:1039000083A394A3A5A3B6A3EE81FF81A081B18177
:1039100012960D90BC91A02DCF01B801A701930183
:10392000FD0109958823F1F100E012E0980140E0E3
:1039300050E088899989AA89BB89820F931FA41FA7
:10394000B51F888B998BAA8BBB8B600E711EA01A3A
:10395000B10A288939894A895B89A114B10409F01F
:1039600025CF888D998DAA8DBB8D82179307A407CB
:10397000B50728F4288F398F4A8F5B8F06C0809156
:10398000A9059091AA05892B19F08A8180688A83FC
:103990008A8183FF05C0CE010E940019882311F09F
:1039A000A20105C08981816089834FEF5FEFCA0161
:1039B000DF91CF911F910F91FF90EF90DF90CF900B
:1039C000BF90AF909F907F906F905F904F903F908F
:1039D0002F90089582FFCECEC3CEBF92CF92DF92BA
:1039E000EF92FF920F931F93CF93DF93EC018881A7
:1039F00085FD63C088899989AA89BB8980509E4FBB
:103A0000AF41B04008F059C0CE010E94851B882309
:103A100009F453C04C855D856E857F858E819F81BD
:103A20000E9467236B017C018E819F818096B70184
:103A3000A60125E00E942223FC010097F1F180E01D
:103A400092E0DF019C011D9221503040E1F7BE2E33
:103A50000F2F11E013C0ED91FC911197B701A60152
:103A6000410F511D611D711D0280F381E02DCD01BB
:103A70002B2D302F0995882301F11F5FAE81BF8167
:103A800012962C911297121730F330E040E050E07C
:103A9000E9E0220F331F441F551FEA95D1F78889AB
:103AA0009989AA89BB89820F931FA41FB51F888B90
:103AB000998BAA8BBB8B81E001C080E0DF91CF9115
:103AC0001F910F91FF90EF90DF90CF90BF900895DE
:103AD000BC0140E020E030E0842F869547954427E4
:103AE0004795482BFB01E20FF31F8081480F2F5FA2
:103AF0003F4F2B30310581F7842F0895CF92DF920D
:103B0000EF92FF920F931F93CF93DF93EC018B0102
:103B10009A0101C0219688818032E1F3F801D483B3
:103B2000C383A0E0B0E0FE01EA0FFB1FE081EE23BB
:103B300011F0EF3221F4AE014A0F5B1F20C0EC35CB
:103B400009F4EEC0E23209F4EBC0EA3209F4E8C04D
:103B5000EA3309F4E5C0EC3309F4E2C0EE3309F4CA
:103B6000DFC0EF3309F4DCC0EC3709F4D9C0E05210
:103B7000EF3508F0D5C01196D6CF4F5F5F4FFA01F1
:103B800080818032D1F38F32C1F3F90140835183B8
:103B90001197FE01EA0FFB1F119607C080818E323C
:103BA00011F0803229F4119731971097B9F705C0B9
:103BB000AF3FB10511F00CF0B3C0F801B283A1839F
:103BC00080E090E296838F5F31968B30D9F760E08A
:103BD00070E002C06F5F7F4FFE01E60FF71FE081CC
:103BE000EE32C1F3E032B1F39D0121503040FE01CD
:103BF000E20FF31F02C0215030408FEF2F3F3807F4
:103C000069F490E06115710509F491E0F8E0EF2E98
:103C1000DD24CC2450E0E7E0FE2E5CC080813197AB
:103C20008E3249F7EECFFE01E60FF71F408140329A
:103C300009F44DC04E3229F42617370709F047C062
:103C400004C0423291F04C3781F0842F8A52863082
:103C500010F44D3251F4842F8A53863030F0815263
:103C6000833018F0865C8E3530F06217730741F0B0
:103C70004FE590E003C06217730711F0F51688F462
:103C8000EAE0FE1669F16217730729F02617370775
:103C90003CF1B90190E040E1E42E58E08AE0F82ED2
:103CA00017C0842F81568A3118F44052DE2805C08F
:103CB000842F81548A3108F4CE28F801E50FF11DD4
:103CC00046835F5F573020F4F801558301C090E0D0
:103CD0006F5F7F4F6A177B070CF4A5CF4D2D02C095
:103CE0004D2D90E0F80186818032D1F0992361F06A
:103CF0008C2D90E02D2D30E082239323892B09F029
:103D000042E0F80140830AC081E0F80180838581A8
:103D1000E80FF11D8EE7868381E3878381E001C090
:103D200080E0DF91CF911F910F91FF90EF90DF9096
:103D3000CF900895AF92BF92CF92DF92EF92FF9211
:103D40000F931F93CF93DF937C01EB01DD80A6E0FF
:103D5000AA2EB12CA60EB71E02E010E0FEE7CF2E71
:103D600069817A81A801460F571FAB81BC8120E091
:103D700030E013C0CA01E5E0880F991FEA95E1F72A
:103D8000480F591FFD01E20FF31F8081992787FD1E
:103D90009095482759272F5F3F4F2617370750F335
:103DA00083E08D1510F4B3E0DB2E9D2D9C5F842FF6
:103DB0008F708A3010F4805D01C0895CFE01E90FCC
:103DC000F11D86839150D91630F4A4E0569547959D
:103DD000AA95E1F7ECCFFE01ED0DF11DC682C701FA
:103DE00040E050E060E070E00E948016C70161E0B2
:103DF0000E948A18FC01009731F420E0F7018181CC
:103E00008823C1F403C08081882311F421E012C00B
:103E1000838583FDEBCFC501BF014BE050E00E94DD
:103E2000B201009719F70F5F1F4F0436110509F013
:103E300097CF20E0822FDF91CF911F910F91FF90BC
:103E4000EF90DF90CF90BF90AF9008952F923F9268
:103E50004F925F926F927F928F929F92AF92BF929A
:103E6000CF92DF92EF92FF920F931F93DF93CF9346
:103E700000D000D00F92CDB7DEB79B838A838B0131
:103E80005A01422EDA0111966D907C901297FB0137
:103E90008081807709F41BC2AA81BB818C91882321
:103EA00009F015C22DC2C3010C966DE070E00E94AE
:103EB000DC29D62ED394C80140E050E060E070E0E9
:103EC0000E948016A6E02A2E312C2A0C3B1C198257
:103ED0009924FF24EE2455241D821C8205C04E2DFA
:103EE00002C04E2D9924E42EF80180899189A2897F
:103EF000B389F5E0B695A79597958795FA95D1F78B
:103F0000C82E892EC80161E00E948A18DC01009742
:103F100039F4D80111968C91882309F0D8C1AAC030
:103F20004C91453E11F0442369F4FF2029F48C2D77
:103F3000982D9C013D832C83FD1408F4F3944423B5
:103F400029F498C0FD1420F4FF2402C0453E49F234
:103F50004E3239F21B968C911B978F3009F057C067
:103F60008C91992049F486FFBACF482F4F711D9646
:103F70005C901D97942E0DC0482F8E2D81504817B0
:103F800011F0482FAFCF1D968C911D97581609F050
:103F9000A9CFEDE04E9F900111242D503040261501
:103FA000370508F09FCF50E0553028F411968D91D9
:103FB0009C9112970BC05B3028F414968D919C91C4
:103FC000159704C016968D919C9117972615370565
:103FD00021F4892B09F086CF86CF8F3F910511F010
:103FE00008F080CF982F81548A3108F4905EF50153
:103FF00063817481620F731FFB016081862F81547E
:104000008A3108F4605E961709F06CCF84C183FD95
:1040100068CF9920D9F0F1E0EF1609F058C190E08F
:1040200020E030E0892F8695979599279795982BD2
:10403000FD01E20FF31F8081980F2F5F3F4F2B3060
:10404000310581F7951509F042C111C0CD01B101CB
:104050004BE050E00E94B201009709F040CFD5013B
:104060008C9180FF04C04E2DB1E0B9833CCF47FE58
:1040700021C12DC146FE2BC141FE29C1FF2099F46B
:104080008C2D982D9C013D832C830DC0C80160E0D0
:104090000E948A18892B31F4F8018181882309F064
:1040A00016C114C0F394FD1488F310C0C8010E9417
:1040B000ED1C882309F40BC1D8011696ED91FC91F3
:1040C00017978281823020F4B0E1FB0EFD1470F36B
:1040D000E981EE2339F0C801B5010E949A1E8823B8
:1040E00009F4F5C08C819D81AC0160E070E0E5E0F1
:1040F000440F551F661F771FEA95D1F7C8010E942C
:104100008016882309F4E3C09D2C9A94F92C4FE083
:10411000E42E3DE0C32ED12C72C0C80160E00E94A5
:104120008A18DC01009709F4D2C0F8012681378192
:10413000F90180A1816080A3F91411F08F2D02C0D4
:104140008F2D80648C931B96EC921B971C961C926F
:104150001C97F50190E020E0892F86959795992787
:104160009795982B8681980F2F5F31962B30A1F76A
:104170001D969C931D975B961C921E925A978C914C
:1041800090E08F7190708C9D90018D9D300D9C9D65
:10419000300D11242D503040F50163817481620F80
:1041A000731F40E02615370530F4FB018081992705
:1041B00087FD909508C02615370519F08FEF9FEF02
:1041C00002C080E090E0453028F412969C938E93D4
:1041D00011970BC04B3028F415969C938E9314972F
:1041E00004C017969C938E9316974F5F12966F5F3D
:1041F0007F4F4D3019F02F5F3F4FD4CFFA94FF20FF
:1042000009F08BCFD8015096CD90DD90ED90FC90C9
:104210005397C80160E00E948A183C01009709F496
:1042200056C080E2F30111928A95E9F7D301F101BA
:104230008BE001900D928150E1F7D5018C9188714E
:10424000F3018487E091A905F091AA05309739F030
:10425000B301625F7F4FC301409609950DC081E2B3
:1042600098E2D30151969C938E93509780E098E00A
:104270001F969C938E931E97D701C60125E0B69595
:10428000A795979587952A95D1F7C82E892EF30182
:1042900080899189938B828B918F808F868597857A
:1042A000978B868BD8011696ED91FC91179780A17C
:1042B000816080A38A819B81B8014C2D582D242DCB
:1042C000092D0E948119882319F081E001C080E046
:1042D0000F900F900F900F900F90CF91DF911F9143
:1042E0000F91FF90EF90DF90CF90BF90AF909F9095
:1042F0008F907F906F905F904F903F902F90089598
:10430000FA01808190E083709070892B09F0CBCD09
:10431000DD24D394D0CD5F5F12965D3009F4E3CDF8
:104320002F5F3F4F41CECF93DF93FC01EB01888598
:104330009985AA85BB850097A105B10531F46E81E9
:104340007F81CF010E94631916C080E2DF011D92B8
:104350008A95E9F780E1808381E082838E819F8165
:104360009783868388859985AA85BB85848F958F59
:10437000A68FB78F81E0DF91CF9108952F923F9262
:104380005F926F927F928F929F92AF92BF92CF92E5
:10439000DF92EF92FF920F931F93DF93CF93CDB7EE
:1043A000DEB7A2970FB6F894DEBF0FBECDBF7C017B
:1043B0006B014A0119821A82FC018081882309F469
:1043C0009FC04D30510508F49BC0B5C0C701B60170
:1043D0000E94BD2298C08E010F5F1F4FC801B70118
:1043E0000E949321882309F48BC077247394C80119
:1043F000502E692E3DE0232E312C5601A80CB91CFD
:104400000894A108B10877C0072D10E0F701448196
:104410005581401B510B60E070E025E0440F551FB3
:10442000661F771F2A95D1F7852D962D0E9480163D
:10443000882309F465C0852D962D60E00E948A18B6
:10444000DC01009709F45CC01B968C911B978F30A0
:1044500009F056C08C9190E08F7190700817190781
:1044600009F04EC0029DC001039D900D129D900D5C
:1044700011240D979AA389A3BC016C0D7D1D9D018C
:1044800040E0453020F4F9018181928109C04B3030
:1044900020F4F9018481958103C0F9018681978117
:1044A0000097B1F0E9A1FAA1E815F905E0F48F371A
:1044B000910508F08FE3FB018193BF0189A19AA1C7
:1044C00001969AA389A34F5F2E5F3F4F4D30C9F6E7
:1044D000E9A1FAA1E815F90530F48C9186FF03C033
:1044E000EC0DFD1D1082F50110828C9186FF02C03B
:1044F00081E009C07394F7018381871508F084CFA8
:10450000F601108280E0A2960FB6F894DEBF0FBECF
:10451000CDBFCF91DF911F910F91FF90EF90DF9072
:10452000CF90BF90AF909F908F907F906F905F9053
:104530003F902F900895F7018381882309F04BCF96
:1045400045CFCF93DF93EC016115710519F420E09D
:1045500030E00FC0DB010D900020E9F71197A61B9A
:10456000B70BE881F9810280F381E02DAD01099557
:104570009C01C901DF91CF910895CF93DF93FC0196
:10458000EB018081882389F0807621F08FE2888397
:10459000198209C0CF0160E00E94DF18009729F05E
:1045A000BE010E94461681E001C080E0DF91CF91FC
:1045B0000895EF92FF920F931F93CF93DF93EC0137
:1045C000888180FF35C0A981BA818E01095F1F4FA4
:1045D000ED91FC9111974B815C816D817E81028010
:1045E000F381E02DCD0198010995882319F1888187
:1045F00081FF1BC0E981FA81208131814485558585
:10460000668577858B819C81AD81BE81480F591F5E
:104610006A1F7B1FD9011296ED90FC901397CF0172
:104620009801F7010995882329F088818E7F888376
:1046300081E001C080E0DF91CF911F910F91FF9049
:10464000EF900895DF92EF92FF920F931F93CF9315
:10465000DF93EC017A018B01D22E8B819C81AD819D
:10466000BE8184179507A607B707E9F0CE010E941F
:10467000D922882309F1D2FC11C0A981BA81ED9118
:10468000FC9111979E01295F3F4F0190F081E02D31
:10469000CD01B801A7010995882371F01882EB823A
:1046A000FC820D831E8383E0D82288818D29888334
:1046B0009E01295F3F4F02C020E030E0C901DF9139
:1046C000CF911F910F91FF90EF90DF900895FC0123
:1046D0009A01AB012250304040405040048004C059
:1046E000220F331F441F551F0A94D2F780899189E6
:1046F000A289B389280F391F4A1F5B1FB901CA015C
:104700000895CF92DF92EF92FF920F931F93CF9372
:10471000DF93EC017A018B0169018D81803229F5EB
:10472000E7E07695679557954795EA95D1F78C8997
:104730009D89AE89BF89480F591F6A1F7B1FCE0113
:10474000809622E00E9422230097E9F1F701EF779B
:10475000F070EE0FFF1FEE0FFF1FE80FF91F4081F3
:104760005181628173817F701CC0803161F54C89F9
:104770005D896E897F894F0D511D611D711DCE01AF
:10478000809622E00E9422230097E9F0F701F07062
:10479000EE0FFF1FE80FF91F80819181AC0160E0EF
:1047A00070E0888D998DAA8DBB8D84179507A6071B
:1047B000B70710F480E008C0F6014083518362839C
:1047C000738381E001C08FEFDF91CF911F910F9133
:1047D000FF90EF90DF90CF9008958F929F92AF92CD
:1047E000BF92CF92DF92EF92FF920F931F93FC0143
:1047F0006A017B01480159018581803221F517E06A
:1048000076956795579547951A95D1F78489958937
:10481000A689B789480F591F6A1F7B1FCF01809651
:1048200023E00E942223009749F1F601EF77F07010
:10483000EE0FFF1FEE0FFF1FE80FF91F808291821E
:10484000A282B38219C08031C9F44489558966892E
:1048500077894D0D511D611D711DCF01809623E09B
:104860000E942223009751F0F601F070EE0FFF1F17
:10487000E80FF91F9182808281E001C080E01F91E2
:104880000F91FF90EF90DF90CF90BF90AF909F90EF
:104890008F9008952F923F924F925F926F927F92E6
:1048A0008F929F92AF92BF92CF92DF92EF92FF9240
:1048B0000F931F93DF93CF9300D000D000D0CDB7DC
:1048C000DEB71C012A013B013E832D8341155105B2
:1048D0006105710519F04A015B0105C0FC01808486
:1048E0009184A284B384750164018E010F5F1F4F10
:1048F0000894C11CD11CE11CF11CF101808D918D2B
:10490000A28DB38D8C159D05AE05BF0528F492E0F0
:10491000C92ED12CE12CF12CC101B701A6019801BF
:104920000E94812387FD37C0882341F089819A81C5
:10493000AB81BC810097A105B10531F0C814D90441
:10494000EA04FB04A9F627C0C101B701A6010FEFD5
:104950001FEF2FEF3FE00E94ED238823E1F0411489
:1049600051046104710451F0C101B301A201970126
:1049700086010E94ED23882331F40DC0F101C08629
:10498000D186E286F386ED81FE81C082D182E28209
:10499000F38281E001C080E026960FB6F894DEBF76
:1049A0000FBECDBFCF91DF911F910F91FF90EF9080
:1049B000DF90CF90BF90AF909F908F907F906F903F
:1049C0005F904F903F902F9008956F927F929F92AB
:1049D000AF92BF92CF92DF92EF92FF920F931F930D
:1049E000DF93CF9300D000D0CDB7DEB75C016A0172
:1049F0007B013E010894611C711CC501B701A60131
:104A000093010E948123982E87FD21C0C501B70123
:104A1000A60100E010E020E030E00E94ED238823B2
:104A2000B1F0F50180859185A285B385C816D906B8
:104A3000EA06FB0620F4C086D186E286F386C980AA
:104A4000DA80EB80FC809920C1F681E001C080E033
:104A50000F900F900F900F90CF91DF911F910F91BA
:104A6000FF90EF90DF90CF90BF90AF909F907F909E
:104A70006F900895CF92DF92EF92FF920F931F9362
:104A8000CF93DF93EC01162F1D8281E090E0A0E030
:104A9000B0E088879987AA87BB87DAA3C9A318A241
:104AA0008FEF9FEFAFEFBFEF8BA39CA3ADA3BEA390
:104AB000662321F4CC24DD24760138C0653008F06B
:104AC000F3C0CE01809640E050E060E070E020E06E
:104AD0000E942223DC01009709F4E6C0612F70E0F8
:104AE00061507040FB0184E0EE0FFF1F8A95E1F7F3
:104AF000EA0FFB1FE254FE4F808190E08F779070A9
:104B0000892B09F0D1C004E0660F771F0A95E1F701
:104B1000A60FB71FAA53BE4FCD90DD90ED90FC902D
:104B2000C114D104E104F10409F4BEC0CE018096A1
:104B3000B701A60120E00E942223FC01009709F49E
:104B4000B3C0838594858050924009F0ADC08089C0
:104B5000823009F0A9C086859785892B09F4A4C005
:104B600085858A8381508B831C8291E020E030E030
:104B70000AC02F5F3F4F2930310509F495C0990FC6
:104B80008C818F5F8C838A81891799F72689378971
:104B90002115310521F0A90160E070E004C044A1B5
:104BA00055A166A177A14C875D876E877F87868533
:104BB0009785A0E0B0E08C0D9D1DAE1DBF1D8C8BB8
:104BC0009D8BAE8BBF8B218932893F832E839A01C7
:104BD000AB01220F331F441F551F280F391F4A1FD7
:104BE0005B1F2C8F3D8F4E8F5F8F8189928975E07F
:104BF000880F991F7A95E1F781509E4F892F992749
:104C00008695A0E0B0E0820F931FA41FB51F888B8C
:104C1000998BAA8BBB8B238934892115310521F00F
:104C2000890120E030E004C000A111A122A133A13C
:104C3000B701A601481B590B6A0B7B0B400F511F94
:104C4000621F731F0C8004C0769567955795479532
:104C50000A94D2F74F5F5F4F6F4F7F4F488F598F46
:104C60006A8F7B8F4150504060407040453F8FE0DD
:104C7000580780E0680780E0780718F48CE08D839F
:104C800013C0455F5F4F6040704010F480E109C081
:104C900084A595A5A6A5B7A58C8F9D8FAE8FBF8F38
:104CA00080E28D8381E001C080E0DF91CF911F9190
:104CB0000F91FF90EF90DF90CF9008951F920F9289
:104CC0000FB60F9211242F933F938F939F93AF931F
:104CD000BF938091AF059091B005A091B105B091BF
:104CE000B2053091B3050196A11DB11D232F2D5F93
:104CF0002D3720F02D570196A11DB11D2093B3052E
:104D00008093AF059093B005A093B105B093B20521
:104D10008091AB059091AC05A091AD05B091AE0529
:104D20000196A11DB11D8093AB059093AC05A09396
:104D3000AD05B093AE05BF91AF919F918F913F911B
:104D40002F910F900FBE0F901F9018958FB7F8946A
:104D50002091AF053091B0054091B1055091B20559
:104D60008FBFB901CA0108959B01AC017FB7F894C8
:104D70008091AB059091AC05A091AD05B091AE05C9
:104D800066B5A89B05C06F3F19F00196A11DB11D26
:104D90007FBFBA2FA92F982F8827860F911DA11D9D
:104DA000B11D62E0880F991FAA1FBB1F6A95D1F73A
:104DB000BC012DC0FFB7F8948091AB059091AC0574
:104DC000A091AD05B091AE05E6B5A89B05C0EF3F3B
:104DD00019F00196A11DB11DFFBFBA2FA92F982F61
:104DE00088278E0F911DA11DB11DE2E0880F991F2C
:104DF000AA1FBB1FEA95D1F7861B970B885E9340CD
:104E0000C8F2215030404040504068517C4F21153D
:104E100031054105510571F60895019739F0880F64
:104E2000991F880F991F02970197F1F708957894B9
:104E300084B5826084BD84B5816084BD85B582609F
:104E400085BD85B5816085BDEEE6F0E0808181603D
:104E50008083E1E8F0E0108280818260808380813D
:104E600081608083E0E8F0E0808181608083E1EB15
:104E7000F0E0808184608083E0EBF0E080818160FD
:104E80008083EAE7F0E080818460808380818260B3
:104E9000808380818160808380818068808310929C
:104EA000C1000895CF93DF93482F50E0CA01865682
:104EB0009F4FFC0134914A575F4FFA018491882338
:104EC00069F190E0880F991FFC01E859FF4FA59107
:104ED000B491FC01EE58FF4FC591D491662351F473
:104EE0002FB7F8948C91932F909589238C93888178
:104EF00089230BC0623061F42FB7F8948C91932F03
:104F0000909589238C938881832B88832FBF06C03B
:104F10009FB7F8948C91832B8C939FBFDF91CF9197
:104F20000895482F50E0CA0182559F4FFC012491FB
:104F3000CA0186569F4FFC0194914A575F4FFA0170
:104F40003491332309F440C0222351F1233071F00E
:104F5000243028F42130A1F0223011F514C026307D
:104F6000B1F02730C1F02430D9F404C08091800022
:104F70008F7703C0809180008F7D8093800010C068
:104F800084B58F7702C084B58F7D84BD09C08091C0
:104F9000B0008F7703C08091B0008F7D8093B00008
:104FA000E32FF0E0EE0FFF1FEE58FF4FA591B491F5
:104FB0002FB7F894662321F48C919095892302C031
:104FC0008C91892B8C932FBF0895682F70E0CB01B3
:104FD00082559F4FFC012491CB0186569F4FFC01C7
:104FE00044916A577F4FFB019491992319F420E073
:104FF00030E03CC0222351F1233071F0243028F4FA
:105000002130A1F0223011F514C02630B1F0273044
:10501000C1F02430D9F404C0809180008F7703C0A0
:10502000809180008F7D8093800010C084B58F7741
:1050300002C084B58F7D84BD09C08091B0008F7798
:1050400003C08091B0008F7D8093B000892F90E0E5
:10505000880F991F84589F4FFC01A591B4918C91A2
:1050600020E030E0842311F021E030E0C901089510
:105070000F93FC0181E892E09183808362834383F4
:10508000248305830F91089581E892E09093B505FC
:105090008093B4051092B6051092B7051092B8052A
:1050A0001092B90508958F929F92AF92BF92CF92BE
:1050B000DF92EF92FF920F931F93CF93DF934C01F8
:1050C0006B017C01AA24BB24C0E0D0E0C601F7013B
:1050D00062814AE050E00E9455298C01C6016EE2CF
:1050E0000E94C928080F191FA00EB11E219608940E
:1050F000E11CF11CC330D10549F7C601F4016581FB
:105100004AE050E00E9455299501280F391FC90136
:10511000DF91CF911F910F91FF90EF90DF90CF9093
:10512000BF90AF909F908F900895FC0181E892E02E
:105130009183808312821382148215820895CF9204
:10514000DF92EF92FF920F931F93CF93DF937C0137
:105150006B018A01C0E0D0E00FC0D6016D916D01F6
:10516000D701ED91FC910190F081E02DC7010995E7
:10517000C80FD91F015010400115110571F7CE015C
:10518000DF91CF911F910F91FF90EF90DF90CF9023
:105190000895DC01ED91FC910190F081E02D0995DD
:1051A00008954F925F927F928F929F92AF92BF929B
:1051B000CF92DF92EF92FF920F931F93DF93CF93E3
:1051C000CDB7DEB7A1970FB6F894DEBF0FBECDBF47
:1051D0002C01742ECB01223008F42AE019A231E20E
:1051E000C32ED12CCC0EDD1E822E9924AA24BB24E2
:1051F000672D752FA50194010E94032A79018A0168
:10520000C801B701A50194010E94BD29472D461B85
:105210000894C108D1084A3014F4405D01C0495CCB
:10522000F6014083E114F1040105110521F07E2C03
:105230005F2DC801DDCFC201B6010E94A122A19657
:105240000FB6F894DEBF0FBECDBFCF91DF911F9197
:105250000F91FF90EF90DF90CF90BF90AF909F9015
:105260008F907F905F904F900895DC01211531055C
:1052700041F4ED91FC910190F081E02D642F0995AE
:1052800008950E94D1280895EF92FF920F931F93E3
:105290009A017B0100E010E0B801A7010E943529C6
:1052A0001F910F91FF90EF900895EF92FF920F934F
:1052B0001F939A01E62EFF2400E010E0B801A70139
:1052C0000E9435291F910F91FF90EF900895CF9282
:1052D000DF92EF92FF920F931F93CF93DF93EC0136
:1052E0006A017B012115310541F4E881F9810190C2
:1052F000F081E02D642F09951FC02A303105D1F4CB
:1053000077FF17C0E881F9810190F081E02D6DE20F
:1053100009958C0144275527BA014C195D096E097E
:105320007F09CE012AE00E94D1289801280F391F59
:1053300004C02AE00E94D1289C01C901DF91CF91CD
:105340001F910F91FF90EF90DF90CF900895EF9213
:10535000FF920F931F937B019A010027F7FC0095A2
:10536000102FB801A7010E9467291F910F91FF908C
:10537000EF9008950E94A1220895629FD001739F2B
:10538000F001829FE00DF11D649FE00DF11D929FE1
:10539000F00D839FF00D749FF00D659FF00D992720
:1053A000729FB00DE11DF91F639FB00DE11DF91F44
:1053B000BD01CF0111240895AA1BBB1B51E107C0F9
:1053C000AA1FBB1FA617B70710F0A61BB70B881F95
:1053D000991F5A95A9F780959095BC01CD01089524
:1053E00097FB092E07260AD077FD04D0E5DF06D00B
:1053F00000201AF4709561957F4F0895F6F7909507
:1054000081959F4F0895A1E21A2EAA1BBB1BFD0197
:105410000DC0AA1FBB1FEE1FFF1FA217B307E40793
:10542000F50720F0A21BB30BE40BF50B661F771FEB
:10543000881F991F1A9469F76095709580959095CB
:105440009B01AC01BD01CF01089597FB092E0526F4
:105450000ED057FD04D0D7DF0AD0001C38F4509589
:105460004095309521953F4F4F4F5F4F0895F6F788
:1054700090958095709561957F4F8F4F9F4F0895C0
:10548000EE0FFF1F0590F491E02D0994F894FFCFE3
:105490004261736520467265713A200020487A00A7
:1054A00042617365205077723A2000456E76204F36
:1054B0004E3A00206D5300456E76204F46463A0026
:1054C0005B467265713A2000487A00467265713A0F
:1054D000200053442043617264002066696C652C8F
:1054E00020002066696C65732C20002064697200BE
:1054F0002064697273004C697665204D6F646500A5
:105500004275727374204D6F6465004669786564F6
:10551000204D6F6465004C697665204D6F64652091
:105520004F4E00022000466F6C646572002E6F6D56
:105530006400002F0043616E2774207377697463E1
:10554000682100436865636B696E6720534420439C
:10555000617264004E6F206361726420666F756EC5
:10556000640042616420506172746974696F6E00F6
:1055700042616420526F6F7400556E6B6E6F776E70
:10558000206572726F72004E6F2076616C696420C4
:1055900066696C6573002000BE050000FFFFFFFF19
:1055A000FFFFFFFFF0F8FCFEFCF8F000021400140F
:1055B000006400010000000000A0079B070000003D
:1055C00000A907A507212121211B1714141211106E
:1055D0000F0E0D0C0B0A0908080808080808080136
:1055E0000204081020DC00E900F70006011501267E
:1055F0000137014A015D01720188019F010000002D
:105600000059129F280000400014005400000000C0
:04561000005328001B
:00000001FF
